{
  "contractName": "ItemManager",
  "abi": [
    {
      "anonymous": false,
      "inputs": [
        {
          "indexed": false,
          "internalType": "uint256",
          "name": "_itemIndex",
          "type": "uint256"
        },
        {
          "indexed": false,
          "internalType": "uint256",
          "name": "_step",
          "type": "uint256"
        },
        {
          "indexed": false,
          "internalType": "address",
          "name": "_itemAddress",
          "type": "address"
        }
      ],
      "name": "SupplyChainStep",
      "type": "event"
    },
    {
      "inputs": [],
      "name": "isOwner",
      "outputs": [
        {
          "internalType": "bool",
          "name": "",
          "type": "bool"
        }
      ],
      "stateMutability": "view",
      "type": "function",
      "constant": true
    },
    {
      "inputs": [
        {
          "internalType": "uint256",
          "name": "",
          "type": "uint256"
        }
      ],
      "name": "items",
      "outputs": [
        {
          "internalType": "contract Item",
          "name": "_item",
          "type": "address"
        },
        {
          "internalType": "string",
          "name": "_identifier",
          "type": "string"
        },
        {
          "internalType": "uint256",
          "name": "_itemPrice",
          "type": "uint256"
        },
        {
          "internalType": "enum ItemManager.SupplyChainState",
          "name": "_state",
          "type": "uint8"
        }
      ],
      "stateMutability": "view",
      "type": "function",
      "constant": true
    },
    {
      "inputs": [
        {
          "internalType": "string",
          "name": "_identifier",
          "type": "string"
        },
        {
          "internalType": "uint256",
          "name": "_itemPrice",
          "type": "uint256"
        }
      ],
      "name": "createItem",
      "outputs": [],
      "stateMutability": "nonpayable",
      "type": "function"
    },
    {
      "inputs": [
        {
          "internalType": "uint256",
          "name": "_itemIndex",
          "type": "uint256"
        }
      ],
      "name": "triggerPayment",
      "outputs": [],
      "stateMutability": "payable",
      "type": "function",
      "payable": true
    },
    {
      "inputs": [
        {
          "internalType": "uint256",
          "name": "_itemIndex",
          "type": "uint256"
        }
      ],
      "name": "triggerDelivery",
      "outputs": [],
      "stateMutability": "nonpayable",
      "type": "function"
    }
  ],
  "bytecode": "0x608060405234801561001057600080fd5b50336000806101000a81548173ffffffffffffffffffffffffffffffffffffffff021916908373ffffffffffffffffffffffffffffffffffffffff160217905550610ff9806100606000396000f3fe60806040526004361061004a5760003560e01c8063800fb83f1461004f5780638c5517421461007d5780638f32d59b1461014f578063bfb231d21461017c578063cd31831e14610266575b600080fd5b61007b6004803603602081101561006557600080fd5b81019080803590602001909291905050506102a1565b005b34801561008957600080fd5b5061014d600480360360408110156100a057600080fd5b81019080803590602001906401000000008111156100bd57600080fd5b8201836020820111156100cf57600080fd5b803590602001918460018302840111640100000000831117156100f157600080fd5b91908080601f016020809104026020016040519081016040528093929190818152602001838380828437600081840152601f19601f820116905080830192505050505050509192919290803590602001909291905050506104d6565b005b34801561015b57600080fd5b50610164610731565b60405180821515815260200191505060405180910390f35b34801561018857600080fd5b506101b56004803603602081101561019f57600080fd5b8101908080359060200190929190505050610787565b604051808573ffffffffffffffffffffffffffffffffffffffff168152602001806020018481526020018360028111156101eb57fe5b8152602001828103825285818151815260200191508051906020019080838360005b8381101561022857808201518184015260208101905061020d565b50505050905090810190601f1680156102555780820380516001836020036101000a031916815260200191505b509550505050505060405180910390f35b34801561027257600080fd5b5061029f6004803603602081101561028957600080fd5b810190808035906020019092919050505061087c565b005b3460016000838152602001908152602001600020600201541461032c576040517f08c379a000000000000000000000000000000000000000000000000000000000815260040180806020018281038252601a8152602001807f4f6e6c792066756c6c7061796d656e747320616363657074656400000000000081525060200191505060405180910390fd5b6000600281111561033957fe5b6001600083815260200190815260200160002060030160009054906101000a900460ff16600281111561036857fe5b146103db576040517f08c379a000000000000000000000000000000000000000000000000000000000815260040180806020018281038252601c8152602001807f4974656d206973206675727468657220696e2074686520636861696e0000000081525060200191505060405180910390fd5b600180600083815260200190815260200160002060030160006101000a81548160ff0219169083600281111561040d57fe5b02179055507fa4035636e99f06b7651a604c1019fa4e8779fe68ef27eeb74dff2de348f6199b816001600084815260200190815260200160002060030160009054906101000a900460ff16600281111561046357fe5b6001600085815260200190815260200160002060000160009054906101000a900473ffffffffffffffffffffffffffffffffffffffff16604051808481526020018381526020018273ffffffffffffffffffffffffffffffffffffffff168152602001935050505060405180910390a150565b6104de610731565b610550576040517f08c379a00000000000000000000000000000000000000000000000000000000081526004018080602001828103825260158152602001807f596f7520617265206e6f7420746865206f776e6572000000000000000000000081525060200191505060405180910390fd5b6000308260025460405161056390610aa1565b808473ffffffffffffffffffffffffffffffffffffffff1681526020018381526020018281526020019350505050604051809103906000f0801580156105ad573d6000803e3d6000fd5b5090508060016000600254815260200190815260200160002060000160006101000a81548173ffffffffffffffffffffffffffffffffffffffff021916908373ffffffffffffffffffffffffffffffffffffffff160217905550826001600060025481526020019081526020016000206001019080519060200190610633929190610aae565b508160016000600254815260200190815260200160002060020181905550600060016000600254815260200190815260200160002060030160006101000a81548160ff0219169083600281111561068657fe5b02179055507fa4035636e99f06b7651a604c1019fa4e8779fe68ef27eeb74dff2de348f6199b60025460016000600254815260200190815260200160002060030160009054906101000a900460ff1660028111156106e057fe5b83604051808481526020018381526020018273ffffffffffffffffffffffffffffffffffffffff168152602001935050505060405180910390a1600260008154809291906001019190505550505050565b60003373ffffffffffffffffffffffffffffffffffffffff1660008054906101000a900473ffffffffffffffffffffffffffffffffffffffff1673ffffffffffffffffffffffffffffffffffffffff1614905090565b60016020528060005260406000206000915090508060000160009054906101000a900473ffffffffffffffffffffffffffffffffffffffff1690806001018054600181600116156101000203166002900480601f0160208091040260200160405190810160405280929190818152602001828054600181600116156101000203166002900480156108595780601f1061082e57610100808354040283529160200191610859565b820191906000526020600020905b81548152906001019060200180831161083c57829003601f168201915b5050505050908060020154908060030160009054906101000a900460ff16905084565b610884610731565b6108f6576040517f08c379a00000000000000000000000000000000000000000000000000000000081526004018080602001828103825260158152602001807f596f7520617265206e6f7420746865206f776e6572000000000000000000000081525060200191505060405180910390fd5b6001600281111561090357fe5b6001600083815260200190815260200160002060030160009054906101000a900460ff16600281111561093257fe5b146109a5576040517f08c379a000000000000000000000000000000000000000000000000000000000815260040180806020018281038252601c8152602001807f4974656d206973206675727468657220696e2074686520636861696e0000000081525060200191505060405180910390fd5b60026001600083815260200190815260200160002060030160006101000a81548160ff021916908360028111156109d857fe5b02179055507fa4035636e99f06b7651a604c1019fa4e8779fe68ef27eeb74dff2de348f6199b816001600084815260200190815260200160002060030160009054906101000a900460ff166002811115610a2e57fe5b6001600085815260200190815260200160002060000160009054906101000a900473ffffffffffffffffffffffffffffffffffffffff16604051808481526020018381526020018273ffffffffffffffffffffffffffffffffffffffff168152602001935050505060405180910390a150565b61047880610b4c83390190565b828054600181600116156101000203166002900490600052602060002090601f016020900481019282601f10610aef57805160ff1916838001178555610b1d565b82800160010185558215610b1d579182015b82811115610b1c578251825591602001919060010190610b01565b5b509050610b2a9190610b2e565b5090565b5b80821115610b47576000816000905550600101610b2f565b509056fe608060405234801561001057600080fd5b506040516104783803806104788339818101604052606081101561003357600080fd5b810190808051906020019092919080519060200190929190805190602001909291905050508160008190555082600360006101000a81548173ffffffffffffffffffffffffffffffffffffffff021916908373ffffffffffffffffffffffffffffffffffffffff160217905550806001819055505050506103bf806100b96000396000f3fe60806040526004361061002d5760003560e01c80632986c0e5146103275780633c8da5881461035257610318565b36610318576000600254146100aa576040517f08c379a00000000000000000000000000000000000000000000000000000000081526004018080602001828103825260148152602001807f4974656d20697320616c7265616479207061696400000000000000000000000081525060200191505060405180910390fd5b3460005414610121576040517f08c379a00000000000000000000000000000000000000000000000000000000081526004018080602001828103825260128152602001807f4e6565642066756c6c207061796d656e7473000000000000000000000000000081525060200191505060405180910390fd5b346002600082825401925050819055506000600360009054906101000a900473ffffffffffffffffffffffffffffffffffffffff1673ffffffffffffffffffffffffffffffffffffffff1634600154604051602401808281526020019150506040516020818303038152906040527f800fb83f000000000000000000000000000000000000000000000000000000007bffffffffffffffffffffffffffffffffffffffffffffffffffffffff19166020820180517bffffffffffffffffffffffffffffffffffffffffffffffffffffffff83818316178352505050506040518082805190602001908083835b60208310610230578051825260208201915060208101905060208303925061020d565b6001836020036101000a03801982511681845116808217855250505050505090500191505060006040518083038185875af1925050503d8060008114610292576040519150601f19603f3d011682016040523d82523d6000602084013e610297565b606091505b505090506001151581151514610315576040517f08c379a00000000000000000000000000000000000000000000000000000000081526004018080602001828103825260208152602001807f546865207472616e73616374696f6e2077617320756e7375636365737366756c81525060200191505060405180910390fd5b50005b34801561032457600080fd5b50005b34801561033357600080fd5b5061033c61037d565b6040518082815260200191505060405180910390f35b34801561035e57600080fd5b50610367610383565b6040518082815260200191505060405180910390f35b60015481565b6000548156fea26469706673582212201c6983798452bbe298ebb831f58149f50b78eb19f9c69f3672cb18b556bf730f64736f6c63430007000033a2646970667358221220ea310f38ce2276ade91720cf623d45c810add338c0c5835cf867145173ec06b264736f6c63430007000033",
  "immutableReferences": {},
  "source": "// SPDX-License-Identifier: Private\npragma solidity ^0.7.0;\n\nimport \"./Ownable.sol\";\nimport \"./Item.sol\";\n\ncontract ItemManager is Ownable {\n    enum SupplyChainState {Created, Paid, Delivered}\n\n    struct S_Item {\n        Item _item;\n        string _identifier;\n        uint256 _itemPrice;\n        ItemManager.SupplyChainState _state;\n    }\n\n    mapping(uint256 => S_Item) public items;\n    uint256 itemIndex;\n\n    event SupplyChainStep(\n        uint256 _itemIndex,\n        uint256 _step,\n        address _itemAddress\n    );\n\n    function createItem(string memory _identifier, uint256 _itemPrice)\n        public\n        onlyOwner\n    {\n        Item item = new Item(this, _itemPrice, itemIndex);\n        items[itemIndex]._item = item;\n        items[itemIndex]._identifier = _identifier;\n        items[itemIndex]._itemPrice = _itemPrice;\n        items[itemIndex]._state = SupplyChainState.Created;\n        emit SupplyChainStep(\n            itemIndex,\n            uint256(items[itemIndex]._state),\n            address(item)\n        );\n        itemIndex++;\n    }\n\n    function triggerPayment(uint256 _itemIndex) public payable {\n        require(\n            items[_itemIndex]._itemPrice == msg.value,\n            \"Only fullpayments accepted\"\n        );\n        require(\n            items[_itemIndex]._state == SupplyChainState.Created,\n            \"Item is further in the chain\"\n        );\n        items[_itemIndex]._state = SupplyChainState.Paid;\n\n        emit SupplyChainStep(\n            _itemIndex,\n            uint256(items[_itemIndex]._state),\n            address(items[_itemIndex]._item)\n        );\n    }\n\n    function triggerDelivery(uint256 _itemIndex) public onlyOwner {\n        require(\n            items[_itemIndex]._state == SupplyChainState.Paid,\n            \"Item is further in the chain\"\n        );\n        items[_itemIndex]._state = SupplyChainState.Delivered;\n        emit SupplyChainStep(\n            _itemIndex,\n            uint256(items[_itemIndex]._state),\n            address(items[_itemIndex]._item)\n        );\n    }\n}\n",
  "sourcePath": "/Users/srinivasvalekar/learn/blockchain/truf/contracts/ItemManager.sol",
  "compiler": {
    "name": "solc",
    "version": "0.7.0+commit.9e61f92b.Emscripten.clang"
  },
  "schemaVersion": "3.2.3",
  "updatedAt": "2020-08-07T16:01:23.422Z",
  "networkType": "ethereum",
  "devdoc": {
    "kind": "dev",
    "methods": {},
    "version": 1
  },
  "userdoc": {
    "kind": "user",
    "methods": {},
    "version": 1
  }
}