{
  "contractName": "Item",
  "abi": [
    {
      "inputs": [
        {
          "internalType": "contract ItemManager",
          "name": "_parentCOntract",
          "type": "address"
        },
        {
          "internalType": "uint256",
          "name": "_priceInWei",
          "type": "uint256"
        },
        {
          "internalType": "uint256",
          "name": "_index",
          "type": "uint256"
        }
      ],
      "stateMutability": "nonpayable",
      "type": "constructor"
    },
    {
      "stateMutability": "nonpayable",
      "type": "fallback"
    },
    {
      "inputs": [],
      "name": "index",
      "outputs": [
        {
          "internalType": "uint256",
          "name": "",
          "type": "uint256"
        }
      ],
      "stateMutability": "view",
      "type": "function"
    },
    {
      "inputs": [],
      "name": "priceInWei",
      "outputs": [
        {
          "internalType": "uint256",
          "name": "",
          "type": "uint256"
        }
      ],
      "stateMutability": "view",
      "type": "function"
    },
    {
      "stateMutability": "payable",
      "type": "receive"
    }
  ],
  "bytecode": "0x608060405234801561001057600080fd5b506040516104783803806104788339818101604052606081101561003357600080fd5b810190808051906020019092919080519060200190929190805190602001909291905050508160008190555082600360006101000a81548173ffffffffffffffffffffffffffffffffffffffff021916908373ffffffffffffffffffffffffffffffffffffffff160217905550806001819055505050506103bf806100b96000396000f3fe60806040526004361061002d5760003560e01c80632986c0e5146103275780633c8da5881461035257610318565b36610318576000600254146100aa576040517f08c379a00000000000000000000000000000000000000000000000000000000081526004018080602001828103825260148152602001807f4974656d20697320616c7265616479207061696400000000000000000000000081525060200191505060405180910390fd5b3460005414610121576040517f08c379a00000000000000000000000000000000000000000000000000000000081526004018080602001828103825260128152602001807f4e6565642066756c6c207061796d656e7473000000000000000000000000000081525060200191505060405180910390fd5b346002600082825401925050819055506000600360009054906101000a900473ffffffffffffffffffffffffffffffffffffffff1673ffffffffffffffffffffffffffffffffffffffff1634600154604051602401808281526020019150506040516020818303038152906040527f800fb83f000000000000000000000000000000000000000000000000000000007bffffffffffffffffffffffffffffffffffffffffffffffffffffffff19166020820180517bffffffffffffffffffffffffffffffffffffffffffffffffffffffff83818316178352505050506040518082805190602001908083835b60208310610230578051825260208201915060208101905060208303925061020d565b6001836020036101000a03801982511681845116808217855250505050505090500191505060006040518083038185875af1925050503d8060008114610292576040519150601f19603f3d011682016040523d82523d6000602084013e610297565b606091505b505090506001151581151514610315576040517f08c379a00000000000000000000000000000000000000000000000000000000081526004018080602001828103825260208152602001807f546865207472616e73616374696f6e2077617320756e7375636365737366756c81525060200191505060405180910390fd5b50005b34801561032457600080fd5b50005b34801561033357600080fd5b5061033c61037d565b6040518082815260200191505060405180910390f35b34801561035e57600080fd5b50610367610383565b6040518082815260200191505060405180910390f35b60015481565b6000548156fea26469706673582212201c6983798452bbe298ebb831f58149f50b78eb19f9c69f3672cb18b556bf730f64736f6c63430007000033",
  "immutableReferences": {},
  "source": "// SPDX-License-Identifier: Private\npragma solidity ^0.7.0;\nimport \"./ItemManager.sol\";\n\ncontract Item {\n    uint256 public priceInWei;\n    uint256 public index;\n    uint256 pricePaid;\n\n    ItemManager parentContract;\n\n    constructor(\n        ItemManager _parentCOntract,\n        uint256 _priceInWei,\n        uint256 _index\n    ) public {\n        priceInWei = _priceInWei;\n        parentContract = _parentCOntract;\n        index = _index;\n    }\n\n    receive() external payable {\n        require(pricePaid == 0, \"Item is already paid\");\n        require(priceInWei == msg.value, \"Need full payments\");\n        pricePaid += msg.value;\n        // (bool success, ) = address(parentContract).call.value(msg.value)(abi.encodeWithSignature(\"triggerPayment(uint256)\", index));\n        (bool success, ) = address(parentContract).call{value: msg.value}(\n            abi.encodeWithSignature(\"triggerPayment(uint256)\", index)\n        );\n\n        require(success == true, \"The transaction was unsuccessful\");\n    }\n\n    fallback() external {}\n}\n",
  "sourcePath": "/Users/srinivasvalekar/learn/blockchain/truf/contracts/Item.sol",
  "compiler": {
    "name": "solc",
    "version": "0.7.0+commit.9e61f92b.Emscripten.clang"
  },
  "schemaVersion": "3.2.3",
  "updatedAt": "2020-08-07T16:01:22.808Z",
  "devdoc": {
    "kind": "dev",
    "methods": {},
    "version": 1
  },
  "userdoc": {
    "kind": "user",
    "methods": {},
    "version": 1
  }
}